:020000040800F2
:100000000000012089010008091700080B170008EB
:100010000D1700080F170008111700080000000056
:10002000000000000000000000000000131700089E
:10003000151700080000000017170008B116000887
:10004000CD010008CD010008CD010008CD01000858
:10005000CD010008CD010008CD010008CD01000848
:10006000CD010008CD010008CD010008CD01000838
:10007000CD010008CD010008CD010008CD01000828
:10008000CD010008CD010008CD010008CD01000818
:10009000CD010008CD010008CD010008CD01000808
:1000A000CD010008CD010008CD010008CD010008F8
:1000B000CD010008CD010008CD010008CD010008E8
:1000C000CD010008CD010008CD010008CD010008D8
:1000D000CD010008CD010008CD010008CD010008C8
:1000E000CD010008CD010008CD010008CD010008B8
:1000F000CD010008CD010008CD010008CD010008A8
:10010000CD010008CD010008CD010008CD01000897
:10011000CD010008CD010008CD010008CD01000887
:10012000CD010008CD010008CD010008CD01000877
:10013000CD010008CD010008CD010008CD01000867
:10014000CD010008CD010008CD010008CD01000857
:10015000CD010008CD010008CD010008C113000841
:10016000CD010008CD010008CD010008CD01000837
:10017000CD010008CD010008CD010008CD01000827
:10018000CD010008CD010008002103E00A4B5B58B7
:100190004350043109480A4B42189A42F6D3094A9F
:1001A00002E0002342F8043B074B9A42F9D301F0E6
:1001B000B3FA00F00FF87047A89100080000002083
:1001C0001809002018090020F83F0020FEE7002051
:1001D0007047000007B501F0A7FA01214FF08050E9
:1001E00007F036FA01214FF48040274C07F03CFA23
:1001F00001F06CFA00F01EFE01F0E8F94FF4FA711C
:10020000684602F01CFB7F2384F832301F4B636189
:100210004FF4BD6323832387A3781D4A626323F0D1
:10022000600343F04003A3701A4B1B4A9A610125F7
:100230002046E36584F8315004F04AFFA3785B065A
:100240004CBFFF20284604F0C1FE4FF4164004F0D6
:1002500015FF00F023F8672000F032F900F02AF9CA
:1002600008F032FA684602F0F6FA40B1684602F049
:10027000EDFA022000F0BCFD032000F0B9FD00F013
:10028000C7FD00F047F8EDE7000F00201809002037
:1002900098150020600F00200000002008B5002005
:1002A00000F0E4FC124801F033FB1249082001F091
:1002B00035FB1149072001F031FB10490C2001F0FA
:1002C0001FFB0F490E2001F01BFB0E49142001F00B
:1002D00017FB0D490F2001F013FB0C49112001F011
:1002E0000FFBBDE808400A484FF47A7102F0A7BA44
:1002F000F9240008212400089D2300089D1E000801
:100300009D200008D11D00085D240008D91C0008AC
:10031000801B002010B586B012220021134C01A8CA
:1003200008F07CF900F0C6F82368984205D000F088
:10033000C1F820600E4802F02BF90E4802F08BFA4B
:1003400028B10C4802F082FA012005F0E5FD4FF4D7
:10035000BD620949002301A804F0A4FD024618B1BA
:10036000054901A801F05AFA06B010BD200000208E
:10037000D0390020801B0020881B00200346054840
:100380000288B2F5806F01D3002070479A42FCD0FA
:100390002430F5E72800002008B1044B036009B1C0
:1003A000034B0B600AB1034B13607047288D0008A4
:1003B000108D0008248D000801207047014B18683B
:1003C000704700BF24000020024B1B681B1A5842D4
:1003D0005841704724000020054A126803469A429B
:1003E000084602D1034904F09BBA0020704700BFC1
:1003F0002400002074210020002310B513609360B6
:1004000013611446FFF7BAFF38B1036A2BB104F148
:10041000100204F1080120469847206808B106F050
:10042000D4F96060A06808B106F0CFF9E0602069F7
:1004300008B106F0CAF9606110BD000070B5174E32
:100440000446306890B108F0DBF978B1251D2846E4
:1004500004F060FA142801D9114B11E031682846E4
:1004600004F02BFA10B90F4BE36414E02378012B4E
:1004700009D9023B042BEFD805F03EFD60B10A4BD1
:10048000E364002007E00021084605F057FD074B14
:1004900022781A70012070BD054BE5E7940000201A
:1004A0000500500004001A000500530098000020C9
:1004B00005002D00014B1868704700BF2400002084
:1004C000B0F5800F3DBF024B18600120002070473F
:1004D000240000204FF4827070470000024A136825
:1004E00001331360704700BF7021002010B5014632
:1004F0000446064804F0BBF930B90448214604F02C
:100500000FFAFFF7EBFF10BD0020FCE7742100207D
:1005100038B5074C00252388B3F5806F01D32846F2
:1005200038BDA3680BB1984705442434F3E700BFF6
:1005300028000020F0B510229BB0054600210DEBED
:10054000020008F06BF84822002108A808F066F8BD
:10055000002D00F00B812E69002E00F009816C69DE
:10056000002C00F0E780AB684C2B42D8392B0DD81B
:100570001C2B6FD036D80B2B00F0E9800C2B00F031
:100580008D807C4BAB614FF0FF34D3E03A3B122BB4
:10059000F7D801A252F823F07B0600088305000873
:1005A0008305000883050008450700085D0700086B
:1005B0006307000883050008830500088305000819
:1005C00083050008830500089906000883050008D4
:1005D0008305000857070008830500088305000805
:1005E000110700081E2B00F0BF802C2BC9D16249D7
:1005F00031E0702B43D01FD8603B0B2BC1D80B2BA5
:10060000BFD801A252F823F0D3060008A9060008BB
:10061000A10600088305000883050008830500087B
:10062000830500088305000883050008830500088A
:10063000830500084B0700088B2B33D005D8782B97
:1006400023D0792B9DD14D4905E09B2B99D14C4B63
:100650001A681CE04B4908A804F0F8F808A93046CD
:1006600003F07BF80446002C64DBAB684C2B61D0B4
:10067000EB6801335ED0444B84E74449EBE7444BDD
:100680001978304603F096FAECE74FF482720023B3
:10069000304603F001FAE5E73E49DCE73E49DAE798
:1006A0000122F4E71822F2E704A804F04DF8002430
:1006B000E7B2384601F03AF901340246394604A857
:1006C00004F04DF82F2CF3D104A9304602F0D8FEE7
:1006D000C8E704A804F038F80024E1B2002204A816
:1006E000013404F03CF8412CF7D12C4C34F8243C74
:1006F000B3F5806FE8D254F81C3C3BB1984728B161
:1007000014F8241C012204A804F029F82434EDE78D
:10071000FFF7FEFEA4B20023CDE90264204A009058
:10072000E9686868019303F0DAFB821C044604D18F
:1007300036236B8320461BB0F0BD431C93D1194B6D
:10074000AB61F7E740F2C452A1E7032199E701F05A
:100750008BF902469BE701F08DF9FAE704F050FCB3
:10076000F7E704F063FCF4E700247EE72C46E1E7BA
:100770003446DFE702002000FA8C0008CF8C000826
:1007800070210020B48C000802003200CB8C0008DD
:10079000BC210020EB8C0008008D00084C000020DC
:1007A000ED07000802002A00F8B50E46174608B902
:1007B0000020F8BD0C4D441E00202B88B3F5806F3F
:1007C000F6D2AB686BB1EA685AB1241A98478442F2
:1007D00007D22B883380EB68204698473860012089
:1007E000E7E72435E9E700BF2800002013B51446E9
:1007F0000B4A126882420B4603D04FF0FF3002B022
:1008000010BD01AA0DF10201581CFFF7CDFF002811
:10081000F3D0019ABDF80210204602F0D9FEEEE7AF
:10082000240000202DE9F04194B04FF6FF7380467C
:100830000D461646ADF80230FFF76AFE0124074662
:10084000BC4201D900201DE001AA0DF102012046A1
:10085000FFF7AAFFC8B1BDF80200FFF78FFDA0B1F6
:10086000436993B1019802A9984770B102A9404623
:1008700003F0FDFF48B115B1BDF802302B800EB179
:10088000019B336014B0BDE8F0810134D8E700006B
:1008900070B5ADF5D45D84B0D0F8D41504466A4681
:1008A000103002F06FF9002807DA0223A4F8DA35D5
:1008B0002523A4F8DC3500206FE0A3684C2B12D070
:1008C000E268013204D00223A4F8DA353223F0E7DB
:1008D0004F2B37D83D2B0BD82C2B04D049D80C2BC1
:1008E00001D01E2B45D10223A4F8DA352823E0E7F6
:1008F0003E3B112B3DD801A252F823F0E708000837
:10090000AD090008CD090008730900087309000843
:10091000730900087309000873090008E708000854
:1009200073090008730900087309000873090008B7
:100930007D090008E7080008F109000873090008AC
:10094000E7080008792B09D85F2B12D90122603BF8
:1009500002FA03F33E4A13420BD0C4E78B3B102B41
:1009600007D8012202FA03F302F590321A40002A56
:10097000B9D10223A4F8DA3520239AE79DF8023092
:100980000C2B0ED1BDF80830082B8ED1039BB3F58C
:10099000800F8AD22F4A136001200DF5D45D04B078
:1009A00070BD0223A4F8DA35092382E79DF80230EE
:1009B000022BF6D1DDE90203B0F5807F73F100036D
:1009C000BFF473AFC0B204F011FBE5E79DF802304D
:1009D000022BE6D1DDE90203421E43F1FF337F2AF9
:1009E00073F10003BFF461AFC0B204F011FBD3E7B1
:1009F0009DF80230072BD4D102AD284603F08AFFC0
:100A0000064600283FF451AF134803F09AFFB04266
:100A100018D9284603F09AFF05280ED8002211465F
:100A20002846FFF7FFFE20B10223A4F8DA35302371
:100A30003FE72846FFF75AFDAEE70223A4F8DA3570
:100A4000292336E70223A4F8DA35142331E700BF5F
:100A500007080003240000207421002010B5FFF7D0
:100A60008DFC28B103691BB1BDE81040084618474A
:100A7000002010BD10B50C461146FFF77FFC28B1D1
:100A800043691BB12046BDE810401847002010BD47
:100A900070B5354E866192B004460088FFF76EFC53
:100AA0000546002830D00369002B5BD0606898476A
:100AB000002857D02669002E52D06069002843D004
:100AC000A3684F2B42D00AD84B2B18D04D2B2BD0DC
:100AD000AB69CBB1204612B0BDE87040184740F278
:100AE00073129342F4D1616820886A46FFF784FC50
:100AF000049B029A0099204605F07EFE24E0E368FC
:100B0000013304D0194BA3614FF0FF301CE0218862
:100B1000082902BF164B1B6863606268304612B03A
:100B2000BDE8704002F054BDE3680133EAD11149D9
:100B3000684603F08BFE6B6913B16068694698479D
:100B40006946304602F009FE12B070BDE368013319
:100B5000D8D12188304612B0BDE8704003F02AB8E1
:100B60003046F1E7A661CFE701001F000200320026
:100B7000240000203D8E000830B50123A0F8DA35AE
:100B80001F23A0F8DC3595B005468088FFF7F6FBFB
:100B9000044630B30369002B63D0286898470028C7
:100BA0005FD0E46924B1AB6840F27312934207D17D
:100BB0000223A5F8DA352823A5F8DC35002010E05B
:100BC0004D2B48D14FF6FF73ADF80230EB68002093
:100BD0000133019007D00223A5F8DA353223A5F8B6
:100BE000DC3515B030BDD5F8D41502AA05F11000DA
:100BF00002F0E1FD00281ADD02A803F0A7FE88B983
:100C000002A803F087FE68B102A803F0A2FE48B173
:100C100001AA0DF1020102A8FFF704FE68B92846F7
:100C2000A047DEE70223A5F8DA352523C4E7F9D18A
:100C30000223A5F8DA350923D1E7AA88BDF80230E6
:100C40009A4203D12A68019B9A42CAD00223A5F88E
:100C5000DA353023B0E72846234615B0BDE83040EA
:100C600018470123A5F8DA351F23A5E710B50D4C69
:100C70002388B3F5806F10D30021084605F05EF994
:100C8000094B0A491A680A48B2F5800F24BF094A7D
:100C90001A60BDE8104003F0D9BD636803B19847FE
:100CA0002434E5E72800002024000020048D0008FB
:100CB00074210020FFFF3F0008B503280FD8DFE8AC
:100CC00000F0020F1C2A01221146194806F01AFCF6
:100CD0001848002101F0B3FD174B01221A7008BD1E
:100CE00001221348802106F00DFC1448002101F078
:100CF000A6FD114B01225A70F1E701220C484FF476
:100D0000804106F0FFFB0E48002101F098FD0A4BE0
:100D100001229A70E3E701220A48202106F0F2FB43
:100D20000948002101F08BFD034B0122DA70D6E760
:100D300000040240C4210020BD210020CC2100205D
:100D4000D421002000000240DC21002008B5032847
:100D50000FD8DFE800F0020F1C2A002219480121F9
:100D600006F0D0FB1848002101F069FD174B002266
:100D70001A7008BD00221348802106F0C3FB1448F6
:100D8000002101F05CFD114B00225A70F1E70022B6
:100D90000C484FF4804106F0B5FB0E48002101F0ED
:100DA0004EFD0A4B00229A70E3E700220A482021F8
:100DB00006F0A8FB0948002101F041FD034B002289
:100DC000DA70D6E700040240C4210020BD210020D3
:100DD000CC210020D421002000000240DC21002092
:100DE00003289ABF014B185C00207047BD210020EA
:100DF00008B50246FFF7F4FF20B1BDE808401046F1
:100E0000FFF7A4BFBDE808401046FFF755BF00003C
:100E100038B5074D0024284601F01DFD10B12046CD
:100E2000FFF794FF0134042C05F10805F3D138BD18
:100E3000C421002013B50121022006F0FDFB684605
:100E400006F05AFB40F2013444F28103694610482F
:100E5000CDE9003406F00EFB0121084606F0ECFB5C
:100E6000684606F049FB202369460A48CDE900346C
:100E700006F000FB0020FFF769FF0120FFF766FF87
:100E80000220FFF763FF0320FFF760FF02B010BDF1
:100E90000004024000000240052910B514460AD89B
:100EA000064B53F8210007F08DFE01462046BDE8B1
:100EB000104002F0D0BE4FF0FF3010BD848D00080E
:100EC00009B1044808600AB1034911600BB1034A33
:100ED0001A607047D08D0008B88D0008CC8D0008CE
:100EE00013460A4601460120FFF7EABF0346012BDD
:100EF000084602D1024903F0A9BC0020704700BF98
:100F00007C8D0008431E58425841704701207047AD
:100F10000028024808BF0120704700BFFFFF3F00C4
:100F200010B50C4604F05AF8044901F8010F0122EB
:100F30002046BDE8104003F021BD00BFE4210020A1
:100F400008B500F03DFB07F03DFE014B586008BDC1
:100F5000E421002010B508460C4607F08BFEB0F5E2
:100F6000165F0ED0B0F5964F0BD0B0F5164F08D0E7
:100F7000B0F5614F05D0B0F5963F02D0B0F5E13F36
:100F800007D1054B1A785C6042F001021A7001200B
:100F900010BD0020FCE700BFE421002010B50C4686
:100FA00004F094F8A04221BF044B1A789C7042F0E0
:100FB000010226BF1A700120002010BDE42100208C
:100FC00010B50C4604F080F8A04221BF044B1A78FB
:100FD000DC7042F0010226BF1A700120002010BD13
:100FE000E421002030B5054697B0002800F0A3802A
:100FF0000469002C00F0FA804069002800F09B8012
:10100000AB6840F28F12934200F0E180B3F5C87FE5
:1010100056D2512B34D83D2B04D8754BAB614FF0D1
:10102000FF3088E03E3B132BF7D801A252F823F0A3
:10103000CF110008E1110008D51100081B100008AD
:101040001B1000081B1000081B1000081B100008D4
:101050001B1000081B1000081B1000081B100008C4
:101060001B100008171100081B10000827110008AA
:101070001B1000083B1100081B100008CB110008D2
:10108000672B46D06F2BC8D104A803F05DFB00226C
:10109000114604A803F063FB04A80022012103F019
:1010A0005EFB04A80022022103F059FB04A80022E1
:1010B000032103F054FB04A9204602F0E1F93AE0D1
:1010C000B3F5D67F22D2B3F5D07FA6D3A3F5D073E4
:1010D0000B2BA2D801A252F823F000BFB1110008D7
:1010E0001B1000081B1000081B10000873110008DB
:1010F000871100081B100008611100081B10000870
:101100004D1100085D11000849110008B3F5F17F89
:1011100083D1002112E06A683821204617B0BDE86B
:10112000304002F055BA04A96868FFF7DFFE04A951
:10113000204602F012FB17B030BD3821204617B010
:10114000BDE8304002F036BD0221F7E7002200235F
:10115000204617B0BDE8304002F09EBC0321EDE709
:1011600004A96868FFF7DCFE04A9204602F060FAD3
:10117000E1E76868FFF7E4FE0146204617B0BDE8E6
:10118000304002F068BD06220023CDE90023CDE9FE
:101190000240184AE968686802F0A1FE821C02D188
:1011A00036236B83C7E7431CC5D1134BAB61C2E742
:1011B0006B68012B09D1114B197801F00101204610
:1011C00017B0BDE8304002F0FEB80021F7E740F26A
:1011D000C452BCE703F02AFF084B02469870B6E7FA
:1011E00003F00EFF054B0246D870B0E72046A2E799
:1011F00002002000990E000802002A00E4210020CD
:1012000030B50368ADF5D45D012B85B0044607D039
:101210000123A0F8DA351F23A4F8DC35002056E0BE
:10122000D0F8D4156A46103001F0ACFC002804DA7E
:101230000223A4F8DA352523EEE7A168414805F03A
:10124000CFFA48B9E368013306D00223A4F8DA35AF
:101250003223A4F8DC353AE0A568B5F5D27F57D043
:101260000ED83F2D3CD0402D1FD03748294605F0E1
:10127000B7FA002855D00223A4F8DA352823CBE7A3
:1012800040F2A7139D42F0D19DF80230062B22D1E7
:101290009DF80800012834D12C4B9DF80C205A7081
:1012A0001A7842F001021A7011E09DF80230022B08
:1012B00011D1DDE90213B1F5807F73F10003B7D2DC
:1012C0002068C9B2FFF76AFE0028B1D001200DF5F1
:1012D000D45D05B030BD0223A4F8DA3509239BE7BD
:1012E0009DF80230022BF6D1DDE90213B1F5807FC3
:1012F00073F100039CD22068C9B2FFF761FE002899
:10130000E4D10223A4F8DA352523A4F8DC35DDE79F
:101310009DF80230042BDED102992068FFF71AFEF7
:10132000EDE70B48294605F05BFA0028A3D10948F0
:10133000294605F055FA00289DD10223A4F8DA3594
:10134000202386E79C8D0008D08D0008E421002032
:10135000B88D0008CC8D000810B50A4C23786FF3C7
:101360000003237003F03AFE607003F05FFEA0708C
:1013700003F046FEE07000F023F907F023FC606004
:1013800010BD00BFE42100200148002101F057BA40
:10139000042A0020014801F083BA00BF042A00207B
:1013A000054B18701B7803F0FF0203B101220348BC
:1013B0004FF4004106F0A6B81C3200200014024091
:1013C00008B5454840F2255106F0E6F990B142488B
:1013D00006F0BCF9414B1B783BB9C1B2404801F063
:1013E000F3F9404A1368013313603B4840F225513A
:1013F00006F0F1F9384840F2277106F0CDF9B8B19E
:10140000394801F0A7F90246002858D0364801F0C3
:10141000C7F981B2304806F095F9344A13680133B0
:101420001360FFF7B1FF2C4840F2277106F0D3F9A3
:10143000294840F2266106F0AFF998B10020FFF785
:10144000AFFF2548002240F2266106F083F92248CA
:1014500040F22551012206F07DF91F4840F2266135
:1014600006F0B9F91C48082106F08CF9012806D1CC
:10147000194806F06BF91848082106F089F9164852
:10148000042106F07FF9012803D11348042106F056
:101490007FF91148022106F075F9012803D10E48A1
:1014A000022106F075F901210B4806F06BF90128BD
:1014B000014610D1BDE80840074806F069B9064862
:1014C00040F2277106F046F90348012240F22661F6
:1014D00006F040F9A7E708BD001401401C320020C7
:1014E000F4210020EC2100200C2A0020F021002013
:1014F000014B1878704700BF1C32002010B504461D
:10150000074801F043F940B91CB1054801F048F91A
:101510002070FFF739FF012010BD0020FCE700BF5D
:10152000F42100200A4608B50146B8B1B2B10C4812
:1015300001F060F990B1FFF727FF0120FFF730FFBE
:101540000848002240F2255106F004F9BDE80840A1
:101550000448012240F2277106F0FCB808BD00BF24
:101560000C2A002000140140B0F5614F1FB509D0CE
:101570001AD8B0F5964F05D0B0F5164F02D0B0F599
:10158000165F17D10C4B009018604FF440220023D7
:101590000A48ADF80C306946CDE9013206F070F822
:1015A000012005B05DF804FBB0F5963FEAD0B0F538
:1015B000E13FE6E70020F4E79C0000200014014032
:1015C000014B1868704700BF9C00002030B52F49C0
:1015D0002F48304C304D85B04FF4006201F026F9B1
:1015E0004FF400622D492E4801F020F901214020DE
:1015F00006F022F80121202006F036F802A805F0B6
:101600007BFF284B4FF4844202A92046CDE90223F8
:1016100005F030FF20460822092105F078FF082256
:1016200020460E2105F073FF0121202006F004F86A
:1016300040F201234FF40041CDE902131A4802A9F8
:1016400005F018FF4FF4E06005F074FF4723012414
:101650008DF8043001A800238DF805308DF8063090
:101660008DF8074005F070FF224640F225512846CC
:1016700006F070F80D4B1868FFF776FF21462846F4
:1016800006F054F8FFF780FE05B030BD04220020BC
:10169000F421002000180240001401401C2A002000
:1016A0000C2A002002020001001402409C000020CD
:1016B000024A13680133136001F0DEB820320020C3
:1016C000014B1868704700BF203200200B4B4FF4CD
:1016D0007A721B68B3FBF2F34FF0E022013B5361D7
:1016E000074BF02183F82310002393610723136134
:1016F000044B4FF00042DA61704700BFA0000020A9
:1017000000ED00E000E100E07047FEE7FEE7FEE7E5
:10171000FEE7704770477047024B4FF000629A60D7
:10172000704700BF00ED00E0174A1849936803F0C6
:101730000C03042B0DD0082B0DD0154B0B60124B56
:10174000144A9B68C3F30313D25C0B68D3400B604D
:101750007047114BF2E75368506813F4800F00F0A4
:101760003F00536814BF0C4A094AB2FBF0F0064A26
:101770005268C2F30142C3F388130132434352005B
:10178000B3FBF2F3DAE700BF00380240A00000200C
:101790000024F400088E000800127A002DE9F041C0
:1017A000002490B00646884617462146122203A818
:1017B000CDE90044ADF8084006F030FF192221467B
:1017C00009A8089406F02AFF03A803F037FC234673
:1017D00022461321684604F000FF6B4603AA3146F7
:1017E00008A804F056FE431E192B054614D808AB72
:1017F0004146181802F0E2FD15FA80F303F14002A9
:101800006A44013302F8207C694608AA304603F096
:101810000FFA10B0BDE8F0812046FAE7F0B58DB0C0
:10182000002705460E4614460021122207A806F09E
:10183000F5FECDE9047704ABADF81870ECB1327861
:10184000012A1AD1009307AA2B462146304604F0FC
:10185000D0FE9DF81230002B31D0BDF82430013B72
:101860009BB24FF6FD72934225D9BDF81430ADF806
:101870000E70122B03D0132B0CD00DB0F0BD2A89A3
:10188000002AFAD11C4B19880029F6D02846FFF708
:1018900085FFF2E72B89002BEFD1241AA4B2012C8B
:1018A000EBD90DF10E01304402F08EFD124BBDF864
:1018B0000E201A80E1E7114800F0B2FEDDE70028B3
:1018C000DBDD8442D9DDBDF82420531E9BB24FF6E8
:1018D000FD718B42D1D94FF6FF739A4206EB00019E
:1018E00003D1335C13F0F00FC7D0221A92B228460E
:1018F00000F0C6F8C1E700BF24320020188E0008AF
:1019000021289CBF014B43F820107047B4320020BF
:10191000014B1860704700BF043400200E289CBFA4
:10192000014B43F820107047C83300202E281AD8E6
:101930000E4A002312F8011B814206D10C4A52F8CC
:101940002300003818BF012070470133222BF1D14A
:10195000084A002312F8011B814201D1064AEEE732
:1019600001330F2BF6D10020704700BF3E8E0008D8
:10197000B4320020608E0008C8330020202814D81C
:10198000DFE800F0111111131311131311111311CA
:101990001313131111111311111311131311131127
:1019A00011131111110001207047002070471628F3
:1019B00010D8072813D908380E2810D8DFE800F00F
:1019C0000808080F0F0F0F0F080F080F0F0F080060
:1019D00001207047A0F11E03584258417047002073
:1019E00070472DE9F8430229DDE9089804460E46C0
:1019F00015461F4602D80020BDE8F8830378C3F3DC
:101A0000C00313700378C3F3800353700378C3F3E8
:101A100040039370407801F086FA6860607801F0C6
:101A2000A3FAA860A3782B732B788BB1042EE2D98C
:101A3000E3786B732379AB730523581C864209D175
:101A4000E35C3B700023C9F80030A8F80030D3E70E
:101A50000323F2E7CFDDE35C3B700444361AC9F898
:101A60000040A8F80060C7E7014B1888704700BF26
:101A7000A6000020014B1878704700BFA40000208A
:101A80002DE9F0418CB006460C4615460021102287
:101A900008A806F0C3FD00238DF80D300593ADF8BE
:101AA0000E3006938DF81C305423ADF8103005230A
:101AB000ADF812305CB1237803F0F002302A00F068
:101AC0008D8007D8102A52D0202A73D022B30CB0B0
:101AD000BDE8F081602A00F0D480702A00F0DE803A
:101AE000502AF4D1022DF2D9A27867788DF80D2012
:101AF0001046FFF75CFF002800F0A6806F4B53F8FC
:101B00002280B8F1000FE2D0033DADB20095E31C96
:101B100039463046C047DAE70DF10E03019305ABB5
:101B2000009308AA0DF10D0329462046FFF759FF3F
:101B30000028CCD09DF80D4004F0DEF918B1112C2E
:101B400001D0142CC3D19DF80D30212B0AD85C4A4A
:101B500052F8234034B1BDF80E10059808AB324658
:101B6000A047B4E7574B1C68002CF4D1AFE7012D18
:101B7000ADD967788DF80D700234023D0594ADF84B
:101B80000E5004F0B9F90028A1D104F0BDF910B14C
:101B9000073F012F9BD89DF80D300E2B97D84A4A4E
:101BA00052F82330002B92D0BDF80E100598324623
:101BB00098478CE7022D8AD9A27861788DF80D209C
:101BC0001046FFF7DBFE002881D0404B53F822304F
:101BD000002B3FF47CAF3046984778E7022D7FF624
:101BE00076AFC3F3C002C3F380038DF81930637876
:101BF0008DF818208DF81A3022B3A3788DF81B3099
:101C0000E3788DF81C300423E25C8DF80D20591C1C
:101C10000C44691A89B210460594ADF80E10FFF70E
:101C2000ADFE00287FF453AF212A3FF650AF274B7B
:101C300053F82250002D3FF44AAF06AB32462046FF
:101C4000A84744E70223DFE7212A3FF640AF04AB71
:101C50000DF11202E91EE01C02F08DFB00283FF49A
:101C600036AF9DF80D20154B53F82240002C3FF461
:101C70002EAFBDF81030BDF8122039463046A047CF
:101C800025E7022D7FF623AF114B1B68002B3FF495
:101C90001EAFA27861783046984718E7022D7FF68C
:101CA00016AF0C4A1568002D3FF411AFA278617889
:101CB00003F001033046A84709E700BF3C3300208A
:101CC000B432002004340020C83300202C3200201D
:101CD000C4330020283200202DE9F04F9FB00025AA
:101CE000394FADF80E50044607A8984616468B4665
:101CF0008DF80D5003F0A2F92A46294604A804F0F5
:101D00005EFC04AB07AA3146384604F0C2FB98F8E3
:101D100000A00546BAF1000F08D00123042298F86C
:101D20000C10781900F0CEFD044635E00DF13009B5
:101D30002046CDF800900DF10D030DF10E0259462D
:101D400004F010F9041E0DDAA21C02D10123524640
:101D5000E5E7E31C20D198F80C100622781904F06E
:101D600077FEE1E79DF80D30022B2F4404D998F857
:101D70000C1008223846F2E714490B78ABB998F8F2
:101D80000C101122384602F0A3F8BDF80E100446DC
:101D90009DF80D0004F0D2F80B4A631904A93046EF
:101DA00002F046FF1FB0BDE8F08F484602F085FD07
:101DB0000028E4D11A23009398F80C100423112270
:101DC000384602F0C1FAAFE7D0390020A800002061
:101DD0002DE9F0479EB000251446804650228946E2
:101DE0000AA800211F4606F019FC2946122205A860
:101DF000CDE90255284EADF8105006F00FFC05A8AD
:101E000003F01CF92A46294602A804F0D8FB304604
:101E100002AB05AA214604F03CFB97F800A005465A
:101E20000644BAF1000F0ED001230422397B30465C
:101E300000F048FD4319184A02A9204602F0F8FEB6
:101E40001EB0BDE8F0870BAB0AAA4946404604F035
:101E5000C3FD002802DA01235246E7E79DF8283047
:101E6000FF2B05D1397B0822304604F0F1FDE1E774
:101E70000AA8FEF7E3FA397B20B11422304602F0BB
:101E800027F8D7E7BDF8763000931422BDF87430F8
:101E9000304602F059FACDE7D03900202DE9F04163
:101EA00092B004461F4606A836231646ADF84630C3
:101EB000884603F0C3F80022114603A804F07FFB14
:101EC000404803AB06AA314604F0E3FA051E42DDA2
:101ED0003B78002B3FD10BAA4146204604F0BFFDC2
:101EE00000285CDBBDF82C30082B06D1364B0C9A51
:101EF0009A420ED1FEF7DEFA0C90BDF82C30382B4A
:101F000007D1314B0C9A9A4203D10020FFF700F819
:101F10000C90DFF8B080397B0BAA08EB050004F0C9
:101F200000FE2B1803EB0802C3F5BB63063304461F
:101F30000BA80F921093FEF7ABFD002831DB044491
:101F40002819404404F019FEBB680444A3420FDA88
:101F50003623ADF84630BDF846003C7B00F0A8FCC7
:101F60000246184801232146284400F0ABFC0446F1
:101F7000144A631903A9304602F05AFE12B0BDE8B4
:101F8000F0810330F4D1BDF846003C7B04F056FDEF
:101F900002460C482146284404F05AFDE7E74FF07A
:101FA000FF34831CD7D0421CEBD10648BDF8463025
:101FB0000093397BBDF844300C22284402F0C4F968
:101FC000D5E700BFD0390020FFFF3F002DE9F043E7
:101FD000304C8BB080460E4615462046D2E90212A0
:101FE00004F078FE40F2C45907460346CDF800904D
:101FF00032462146404604F03DFA30B936236B8222
:102000006FF001000BB0BDE8F0832B88ADF80C3009
:102010006B68EA680493AB680593CDE90624082B46
:102020001D4ACDF8209009920FD0692B0DD0502B6E
:102030000BD003A8FEF72CFD00281CDAC31C012BD3
:10204000BDF8262004D86A82DCE74FF0FF30F5E7C0
:10205000BDF824100F4804F06EFE40F2C45304464D
:1020600000930C490346F219404604F003FA002895
:10207000C4D03819C6E73E44731C034440F2C25230
:102080009342BBDC0246214608EB060004F038FE12
:102090000446EEE70834002001001F002DE9F04F50
:1020A0009FB0CDE90310089299465BB351B30EA8D7
:1020B00002F0C4FFAE4D002211460BA804F07FFAD7
:1020C000284608990BAB0EAA04F0E3F999F80070C2
:1020D00007900544CFB13623ADF85E30BDF85E0001
:1020E00099F80C4000F0E4FB012302462146284603
:1020F00000F0E8FB0446079B9D4A089823440BA97F
:1021000002F096FD1FB0BDE8F08F99F80C1028463C
:1021100004F0C9FD3E460446039B991B049B13AA89
:10212000981904F034FD0028C0F21F81BDF84C302E
:102130000644082BB6B206D18E4B149A9A420ED1A1
:10214000FEF7B8F91490BDF84C30382B07D1894B05
:10215000149A9A4203D10020FEF7DAFE149013A9D4
:10216000854804F0A8FD40F2C4520346009282491B
:102170002246284604F07EF983B2002BABD0002320
:10218000DFF8F4B1069314FA80F4039B991B049BC7
:1021900013AA981904F02AFD0028C0F2E680159BC6
:1021A0000644082BB6B203D0692B01D0502B06D1C0
:1021B0001499BDF84C00FEF751FC059048B913AADC
:1021C000A1B22846FFF702FF002840F3B98004447B
:1021D0002AE0DDE91532511C4ED01946584604F06C
:1021E00079FD40F2C45803468246CDF8008022466D
:1021F0005946284604F03EF980B200283FF46BAF00
:1022000032220221584604F096FDA24403460446B9
:10221000CDF8008052465946284604F02BF980B28A
:1022200000283FF458AF5444049B0121981901F051
:1022300097F80028A9D0504804F096FD40F2C45207
:10224000034600924C492246284604F013F9013611
:1022500083B2B6B2002B3FF43EAF069B14FA80F473
:10226000002B6ED1039BB3423FF656AFD9F808302E
:10227000A342FFF630AF64E01499BDF84C00099317
:1022800018AAFEF7B9F8099B082B10D11B99199AC7
:102290000A441D9902EB010ABAF1000F11D11499F9
:1022A000BDF84C00FEF7DAFB0028BDD187E7692BAB
:1022B00002D1DDF864A0EFE7502BF0D1DDF86CA07F
:1022C000EAE74FF00008082B19991B9A27D14145DE
:1022D00003D9189A52F8282007E00A44424514D935
:1022E0001A9AA8EB010152F821201592A1B213AA63
:1022F00028460993FFF76AFE00281DDD08F1010852
:10230000D045099B0444DED18EE71D991144414517
:1023100009D91C99A8EB020251F82220E5E7692BA4
:1023200004D14145D5D84FF0FF32DEE7502BFAD12A
:102330004245F8D91A9ACDE7059B0693074673E7FD
:102340000746002F3FF4D7AEBA1C3FF4C7AE7B1C44
:1023500014D1BDF85E30009399F80C10BDF85C30D4
:102360000E22284601F0F0FFC4E60746ECE700BF66
:10237000D0390020FFFF3F000834002003377FF4EE
:10238000BAAEBDF85E0099F80C4004F057FB214648
:102390000246284604F05CFBACE600BF00B5ABB0DB
:1023A00015AA04F0CEFE002826DD159B013316D1B8
:1023B0004FF6FF73ADF80630002302939DF85C30B2
:1023C000EBB91999BDF8600003AAFEF753FB98B169
:1023D000FEF770F8199ABDF8601003AB1DE0169B6C
:1023E0000133E5D0FEF766F8159B984204D3FEF75B
:1023F00061F8169B9842DBD92BB05DF804FB02AA6A
:102400000DF1060118A8FEF70DFA0028F4D0FEF72A
:1024100051F8029ABDF8061018AB00F0C9F8EBE7C6
:1024200007B50023CDE900336A4601AB04F027FF6E
:1024300028B9094800F0ACF803B05DF804FB01309E
:10244000FAD0FEF737F8009B9842F5D3FEF732F842
:10245000019B9842F0D8ECE7D03900202DE9F047F5
:10246000ADF5C16D804605A81F461546214C89462D
:1024700002F0E4FD0022114602A804F0A0F8204674
:1024800002AB05AA294604F004F897F800A0064616
:102490000444BAF1000F09D10AAA4946404604F0A3
:1024A00049FF002812DC0123524601E001230422E7
:1024B000397B204600F006FA83190E4A02A9284605
:1024C00002F0B6FB0DF5C16DBDE8F0870AA8FEF776
:1024D00053FB397B20B10F22204601F0F9FCEBE7DA
:1024E000BDF8043600930F22BDF80236204601F0F5
:1024F0002BFFE1E7D0390020F0B589B003A81446DE
:102500001F460E4E02F09AFD00221146684604F066
:1025100056F86B4603AA2146304603F0BAFF397BD2
:1025200005460922301804F093FA32462B18694602
:10253000204602F07DFB09B0F0BD00BFD03900207D
:1025400070B588B00D46044603A8164602F076FD25
:10255000284602F085FD00221146304604F02FF88F
:10256000334603AA2946204603F093FF0546044458
:10257000FDF7A0FF0646FDF7ADFF0323009040F2F4
:10258000C4523146204603F07AFD284408B070BD9D
:1025900010B588B06A4603A90446FFF7D1FF22466A
:1025A0000346694603A802F043FB08B010BD0000D3
:1025B0002DE9F043A5B0814609A8884617461E4676
:1025C00002F03CFD03F090FC28B304A802F048FDA3
:1025D000124D0022114601A803F0F1FF09AA01AB38
:1025E00004A9284603F055FF08230446314612A8E3
:1025F000ADF83830CDF83C90ADF84080119702F03E
:102600008FF90EA9281903F05EFD2A46231801A9A7
:1026100004A802F00DFB25B0BDE8F083D0390020FE
:102620000FB404B0704710B1C3680069181A70473E
:1026300008B5024628B1FFF7F6FF5369984288BFF4
:10264000506108BD08B5024630B1FFF7ECFF936852
:102650001B1A5842584108BD0120FCE708B528B1B3
:10266000FFF7E1FFB0FA80F0400908BD0120FCE768
:1026700010B50246FFF7F2FF50B913699168106870
:102680005268B3FBF1F401FB143302FB030010BDED
:102690000020FCE770B50246FFF7E0FF0346B0B943
:1026A000106921B9136901331361012070BD956868
:1026B0001468B0FBF5F605FB1600556805FB0040F5
:1026C00054689C42EED9C45CCC540133F8E7002036
:1026D000ECE710B5014608B9002010BDFFF7B2FFC6
:1026E0000028F9D18A68CB680868B3FBF2F402FBD2
:1026F00014334A6802FB0300EFE738B5044608B913
:10270000002038BDFFF79EFF0028F9D1A068E368DC
:102710002268B3FBF0F500FB1533606800FB032370
:102720009942EDD1E36801332046E360FFF780FF73
:102730000120E6E710B550B153B15C1E1C4007D133
:10274000C460C0E90012046183604461012010BDCF
:102750000020FCE710B103684068181A704708B5FC
:10276000024630B1FFF7F6FFD3681B1A58425841B2
:1027700008BD0120FCE708B538B1C268FFF7EAFFE1
:10278000101A884234BF0020012008BD08B528B1C6
:10279000FFF7E0FFB0FA80F0400908BD0120FCE738
:1027A00008B50246FFF7F2FF60B95368D168B3FB82
:1027B000F1F001FB10339168C85C53680133C0B27B
:1027C000536008BD0020FCE710B5044608B900209E
:1027D00010BDFFF7C4FF0028F9D12368E268B3FBFE
:1027E000F2F002FB1033A268D15423680133236056
:1027F0000120EDE770B50C4611460546FFF7BBFF1B
:1028000018B18CB121448C4200D170BD2B68EA68AC
:10281000B3FBF2F602FB1633AA6814F8016BD65428
:102820002B6801332B60EEE72046EEE730B129B18B
:1028300022B1C0E90212002303604360704710B563
:1028400041600446FEF73CFF206010BDD0E9003235
:1028500013440360704710B50446406858B1FEF752
:102860002FFFD4E900321344C01A6FF0004398429E
:102870002CBF0020012010BD10B5084B1C6804B906
:1028800010BD2046FFF7E7FF30B1A36898476368A3
:1028900013B12046FFF7DAFFE468F0E7CC390020F7
:1028A00010B50446FEF70CFF2368C01A10BD0000E7
:1028B000333880B255289ABF014B185C002070470E
:1028C0006F8E000838B1002B14BF71237023037082
:1028D000417082700320704730B5E0B1D9B10B462A
:1028E000024613F8014B02F8014B01F1080413F8FA
:1028F000015B02F8015BA342F9D10B8903818B7A5A
:10290000837201F10B030B30123113F8012B00F825
:10291000012B8B42F9D130BD30B548B349B3884261
:1029200025D004780B78A34223D101235A1ED2B2BA
:10293000944203D9C55CCA5C95421AD10133082B75
:10294000F4D102890B89934213D183B1847A8B7AB3
:10295000A3420ED10B23A3F10B02D2B2944203D9AE
:10296000C55CCA5C954204D10133122BF3D101201E
:1029700030BD0020FCE7F0B5002395B014460022DE
:10298000CDE9002306460F464422002103A805F0A6
:1029900045FE6A463946304600F0F5FF051E03DC69
:1029A0004FF0FF3015B0F0BD009B019AB3F5803FAA
:1029B00072F10002F4D204B1238103AA791B7019C9
:1029C00000F063FE0028EBDD0CB92844EAE7039B26
:1029D000072BE5D8DBB204F8013B04A90022D6B2EC
:1029E000B342F2D911F8016B04F8016B0132F6E73A
:1029F0000A4640F2C451FFF7BEBF37B50D461C462C
:102A00001146002B00F0AF806B1E232B00F2AB8031
:102A1000DFE803F012181E23282D353A3F44494EB3
:102A2000A9A9A9A9A9A969645FA994999EA4A9A91A
:102A3000847F89A96E8E7378084600F0C9FC2072E5
:102A400000201AE004F1080200F0C4FFA8B996E0E3
:102A500004F1080201F0FAF8F8E704F1080201F0C5
:102A60002AFEF3E704F1080201F05EFEEEE704F14E
:102A7000080200F004FE0028E2D003B030BD04F1EB
:102A8000080200F092FEE1E704F1080200F0A4FC65
:102A9000DCE704F1080201F027F8D7E704F10802A7
:102AA00001F0A6F9D2E704F1080201F087F9CDE7B9
:102AB0004FF6FF73ADF80230002301930DF10202CF
:102AC00001AB00F0F2FCBDF802302381019BE36012
:102AD000BCE704F1080204F049F9B7E704F1080281
:102AE00003F087F9B2E704F1080203F0BCF9ADE79F
:102AF00004F1080203F0A0FBA8E704F1080203F0C8
:102B0000AEFBA3E704F10803002289B203F0F2FB55
:102B10009CE704F1080204F06BF997E704F108025E
:102B200004F09EF992E704F1080204F00CFA8DE734
:102B300004F10803002203F0E4FA87E704F1080235
:102B400001F0EDFA82E704F1080101F0B5FB7DE741
:102B500004F1080289B201F0B4FB77E704F108023E
:102B600001F013FA72E7002D3FF46AAF012D3FF434
:102B700067AF062D3FF464AF002C3FF461AF102324
:102B8000A3705DE72DE9F34100240F4615468DF84B
:102B9000034001948046C8B1B2B3B9B3067816F0C9
:102BA000080635D1167001AB0DF1030200F047FBAA
:102BB000041E27DD9DF80310A970BC4209D94FF00F
:102BC000FF3005F580550023C5F8883A02B0BDE80E
:102BD000F0818B1E0A2B019A12D86FF000439A42A3
:102BE00034BF104618463F1B8742E8D32B4608EBFC
:102BF0000400FFF702FFAB78102BE0D02044E0E7A1
:102C00003046F0E73046DCE71046DFE70846DDE710
:102C10002046DBE713B500238DF80330019310B98C
:102C2000002002B010BD037813F00804F8D101AB06
:102C30000DF1030200F003FB0028F1DD9DF80320F5
:102C4000019B023A0A2A06D86FF00042934228BF3D
:102C500013461844E5E72346FBE7000084287CD0B0
:102C600036D8362800F08D8025D826286ED01BD87F
:102C7000022867D0172859D010207047D33807286A
:102C8000FAD801A353F820F0632D0008372D00086F
:102C9000792C0008372D0008792C0008792C0008C1
:102CA000792C0008372D00083528E5D100290CBF04
:102CB0000C20102070476D2859D003D84E284CD0D6
:102CC0006628F2E78228D7D10229D5D8374B30E0E1
:102CD000DA280DD8D228D1D8B9285DD0BB2855D054
:102CE0009828C9D10139C9B20329C5D8304B20E091
:102CF00040F2971398423FD0B0F5CC7F0BD240F210
:102D0000591398423DD0B0F5BE7FB5D1002914BF0C
:102D1000102021207047B0F5D17F2DD0254B98424F
:102D2000AAD1002914BF1020242070470229A3D85B
:102D3000214B585C7047012932D9022914BF102059
:102D400004207047082997D81C4BF2E7012929D0A5
:102D5000032914BF10200220704703298CD8184B78
:102D6000E7E7022938BF0C2028BF10207047002950
:102D700014BF102019207047002914BF10202220F2
:102D80007047002914BF10201720704761B1012936
:102D900014BF102003207047022938BF0220E3E748
:102DA000022070470C20704704207047D98E00081D
:102DB000D58E00081E004000C58E0008C88E000891
:102DC000D18E000873B5002516468DF80350019585
:102DD00010B9002002B070BD03781B07F9D501AB14
:102DE0000DF1030200F02BFA04460028F1D09DF803
:102DF00003103046FFF732FF1028019B0AD002383B
:102E00000A2805D86FF00042934234BF1D4615468C
:102E10006019DFE7E018DDE72DE9F74F00240E46E3
:102E200092468DF8034001940546D0B1C9B100F037
:102E3000B4F9B0B1A146A04627463146284600F075
:102E4000ACF9A6EB080B00B301AB0DF10302594638
:102E5000284600F0F4F99DF8033044B9002899465B
:102E600037DC4FF0FF37384603B0BDE8F08F4B45F5
:102E700003D10134E4B2002CF5D00028F1DD074481
:102E80008044B045EDD20544D7E73146284600F0EE
:102E90008FF970B101AB0DF103025946284600F0DD
:102EA000CEF99DF803304B45E5D1002CDBD0013C39
:102EB000E0E73146284600F086F928B152465946E7
:102EC0002846FFF77FFFD6E759462846FFF7A2FEC0
:102ED000D1E70124D4E7034610F0010018BF802099
:102EE000990748BF40F040005A0744BF40F0200017
:102EF000C0B2190744BF40F01000C0B2DA0644BFA8
:102F000040F00800C0B2990644BF40F00400C0B2CF
:102F10005A0644BF40F00200C0B21B0644BF40F056
:102F20000100C0B2704700F0F000402812D008D86D
:102F3000202811D0302811D0102814BF00200220E2
:102F4000704760280CD070280CD0502814BF002087
:102F500020207047102070470420704708207047D9
:102F6000402070474120704700F00F0005289ABFAD
:102F7000024B33F910000020704700BFDC8E0008C0
:102F800010B50C46194680B3002303700AB108231C
:102F9000037003780E2C95BF43EA041463F00F030B
:102FA000047003708ABF447001240224042903784A
:102FB0000AD943F00503FD29037009D9B1F5803F13
:102FC00009D3FF2303551BE00B430370204610BDBC
:102FD00001550134FAE7FE230355013400B12044C2
:102FE00089B201F0EBF90444F0E70F2C34BF01245F
:102FF0000224042BEAD9FD29EBD9B1F5803FECD3AB
:10300000013400B1204401F0FFF9ECE7034658B168
:103010000E290ED8090141F00801017001201A782B
:1030200042F006021A7070470F2934BF01200220B7
:103030007047F822027041700220F0E7034658B151
:103040000E290ED8090141F00801017001201A78FB
:1030500042F007021A7070470F2934BF0120022086
:103060007047F822027041700220F0E7037803F005
:10307000F002F02A04D109B143780B7002207047A6
:1030800009B11B090B700120704710B504460846B2
:1030900089B1237803F0F001F02906D1012809D085
:1030A0000AB163781370022005E00AB11B0913709E
:1030B000012000E0002010BDF7B500270E461546A0
:1030C0008DF80370044600285AD0002963D00DF112
:1030D0000302FFF7DAFF002852DD217801F0070133
:1030E00005292FD1B04232D2235CFF2BA6EB000181
:1030F00017D104292BD9461C01A9A01901F08EF97A
:1031000001993044227812F0080323D002F007021C
:10311000062A37D0072A39D0002422460126234622
:103120001CE0FE2B0AD1022911D9461C01A9A019C5
:1031300001F04AF9BDF804103044E3E741B1194603
:103140000130DFE78B1F012B98BF0021DAE73946FA
:103150000846D7E71C461A461E46012300280FDD05
:1031600075B143EA460343EA82036A789DF8037027
:103170002F7043EAC40322F00F0213436B7069609F
:1031800003B0F0BD002401222646C8E70022012436
:1031900016461346E2E70846F2E70346084631B111
:1031A000187800F00F00A0F10E0358425841704704
:1031B0000346084631B1187800F00F00A0F10F0364
:1031C0005842584170470346084611B11878C0F379
:1031D000C000704773B506461446FFF747FF3378C3
:1031E00003F00703052B05461DD1335CFF2B05F1CA
:1031F00001050AD10023701901A9019301F00EF90C
:103200000544CCB1019B236016E0FE2B12D10023B4
:10321000701901A9ADF8043001F0D6F805445CB18D
:10322000BDF80430EFE7062B02D12CB10023EAE70A
:10323000072BFAD0002CE6D1284602B070BD37B576
:1032400015461C466A460023CDE90033FFF734FFDC
:10325000002805DD24B1019B23609DF800302B7010
:1032600003B030BD37B5054600230C460DF107010C
:103270008DF80730FFF7FAFE287810F0080004D028
:103280009DF80700031B5842584103B030BD73B589
:1032900000230C460DF10701054616468DF8073050
:1032A000FFF7E4FE3060287810F0080004D09DF8A5
:1032B0000700031B5842584102B070BDF7B51646CF
:1032C00000246A461D46CDE90044089FFFF7F4FE3E
:1032D000031E0FDD9DF8010010F002000BD09DF8D9
:1032E0000020B24206D105B12B600FB1019B3B60BB
:1032F000012000E0204603B0F0BD73B506460D4640
:1033000000240DF107018DF80740FFF7AFFE337879
:1033100003F00703062B06D19DF80700431B584214
:10332000584102B070BD2046FBE773B51646002435
:103330006A461D46CDE90044FFF7BEFE031E0CDDC4
:103340009DF8010010F0040008D09DF80020B24262
:1033500003D105B12B60012000E0204602B070BD12
:1033600073B506460D4600240DF107018DF80740A0
:10337000FFF77CFE337803F00703072B06D19DF897
:103380000700431B5842584102B070BD2046FBE77E
:1033900073B5164600246A461D46CDE90044FFF782
:1033A0008BFE031E0CDD9DF8010010F0080008D014
:1033B0009DF80020B24203D105B12B60012000E04E
:1033C000204602B070BD0B4600220121FFF7D8BD98
:1033D000003818BF012070472DE9F8430C46154608
:1033E000064618B900242046BDE8F883002AF9D023
:1033F000104601F0A9F9002CF4D004F1FF38B8F11F
:103400000F0FEFD8B1460027B84508D832785FFAD9
:1034100088F102F00702284601F0D6F9E3E719F82F
:10342000010FFFF758FDF9B20246284601F0C3F933
:103430000137E9E7F8B5054608460E4601F0A8F958
:1034400018B905B12870012010E0304601F0A3F949
:103450000446304601F09CF915B1C0EBC400287059
:103460000127791EC9B28C4201D8601CF8BD2DB16C
:10347000304601F098F9FFF72EFDE8550137F0E7E7
:1034800070B5044608460E4601F085F90022431C3B
:1034900008212046FFF774FD054604B10444314677
:1034A0002046FFF7C7FF284470BDF7B50F461C46FE
:1034B00001A9002306461546019300F0AFFFB8426C
:1034C00009D146B115B1019B9B0D2B801CB1019B0D
:1034D000C3F31503236003B0F0BD13460A4604216D
:1034E000FFF7E3BF2DE9F041DDF8188014461D46D3
:1034F0000F46064643462A4621460020FFF7D5FFE1
:10350000B84207D843462A4621463046BDE8F04136
:10351000FFF7CBBF0020BDE8F0812DE9F04385B077
:103520009146002402AACDE9024406460F46984679
:10353000FFF7C2FD051E04DC4FF0FF3005B0BDE80B
:10354000F0839DF809309B07F6D59DF808304B4570
:103550000BD10C9B0093039A4346791B7019FFF71C
:10356000C1FF0028E8DD2844E8E72046E6E773B518
:1035700015461E4601AA002304460193FFF787FE65
:1035800058B10198324629462044FFF7A6FF019B17
:1035900003440193019802B070BD4FF0FF33F8E788
:1035A000C2F3150242EA815100F02EBFF8B516466B
:1035B0001F46012204230446FFF7E2FC054604B13E
:1035C00004443A4631462046FFF7EAFF2844F8BD56
:1035D000F8B5044600200E461746FFF7E1FF00222B
:1035E00003460C212046FFF7CBFC054604B10444FA
:1035F0003A4631462046FFF7D3FF2844F8BD70B560
:1036000006460C4691B1084601F0D9F90546204618
:1036100001F0D2F900B13EB9284670BDC25CF25447
:1036200001339D42FADCF7E70023FAE70D46F3E7A2
:1036300070B505460C46084679B101F0C0F9002284
:10364000034606212846FFF79BFC064605B10544C4
:1036500021462846FFF7D3FF304470BD8A4238B573
:1036600005461446184607D822B1294601F086F9C6
:10367000204638BD1146F9E74FF0FF30F9E7134611
:103680000A4640F2C451FFF7E9BF2DE9F34116465F
:1036900000246A46CDE9004407468846FFF70CFD42
:1036A000051E04DC4FF0FF3002B0BDE8F0819DF84C
:1036B0000130DB07F6D59DF80030062B0AD1019AC0
:1036C0003346A8EB05017819FFF7C8FF0028E9DBAE
:1036D0002844E9E72046E7E72DE9F743914600242F
:1036E0006A46CDE90044074688461E46FFF7E4FCDB
:1036F000051E04DC4FF0FF3003B0BDE8F0839DF8F9
:1037000001309B07F6D59DF800304B450AD1019A50
:103710003346A8EB05017819FFF7A0FF0028E9DB85
:103720002844E9E72046E7E770B5044608460E4618
:1037300001F0F0F805464CB1304601F007F9207071
:10374000304601F0E4F82B18984201D1681C70BD96
:1037500010F8012B04F8012FF6E770B5044608466F
:103760000E4601F0D7F80022431C07212046FFF740
:1037700007FC054604B1044431462046FFF7D4FF58
:10378000284470BD8A4238B50546144618460AD802
:103790003AB1012A05D02A46631E12F8011B01F036
:1037A0002FF8204600E0002038BD13460A4640F2BC
:1037B000C451FFF7E7BF2DE9F341164600246A46DE
:1037C000CDE9004407468846FFF776FC051E04DC79
:1037D0004FF0FF3002B0BDE8F0819DF80130DB070B
:1037E000F6D59DF80030072B0AD1019A3346A8EB95
:1037F00005017819FFF7C6FF0028E9DD2844E9E74D
:103800002046E7E72DE9F743914600246A46CDE9D3
:103810000044074688461E46FFF74EFC051E04DCA2
:103820004FF0FF3003B0BDE8F0839DF801309B07F7
:10383000F6D59DF800304B450AD1019A3346A8EBE6
:1038400005017819FFF79EFF0028E9DD2844E9E724
:103850002046E7E7DFB58A421C464FF000064FF0EE
:1038600000034FF00007CDE90267ADF80230019385
:103870005CD8013A072A54D8DFE802F0040B17217C
:103880002B353F491CB1037823600023636001207E
:103890004DE044B10DF1020100F096FDBDF802309B
:1038A000236000236360022041E034B101A900F0ED
:1038B0009DFD019B236000236360032037E034B14A
:1038C00001A900F0ABFD019B23600023636004208D
:1038D0002DE034B102A900F0BEFDDDE90223C4E908
:1038E0000023052023E034B102A900F0D8FDDDE972
:1038F0000223C4E90023062019E034B102A900F034
:10390000F8FDDDE90223C4E9002307200FE034B10C
:1039100002A900F01EFEDDE90223C4E9002308200D
:1039200005E034B100220023C4E90023002004B0E4
:10393000D0BD2046FBE72DE9F743914600246A46B7
:10394000CDE90044074688461E46FFF7B5FB051E35
:1039500004DC4FF0FF3003B0BDE8F0839DF8013088
:103960009B07F6D59DF800304B450AD1019A3346A6
:10397000A8EB05017819FFF76DFF0028E9DD284461
:10398000E9E72046E7E72DE9F341164600246A46B9
:10399000CDE9004407468846FFF78EFB051E04DC90
:1039A0004FF0FF3002B0BDE8F0819DF80130DB0739
:1039B000F6D59DF80030022B0AD1019A3346A8EBC8
:1039C00005017819FFF746FF0028E9DD2844E9E7FB
:1039D0002046E7E713460A460821FFF73BBFF8B544
:1039E00019460546104616461F4600F0D5FD04460A
:1039F00015B1012802D12E702046F8BD022804D14D
:103A0000B1B2284600F0DAFCF6E7032804D13146CB
:103A1000284600F0E3FCEFE7042804D131462846AD
:103A200000F0F2FCE8E7052805D132463B4628467F
:103A300000F006FDE0E7062805D132463B46284661
:103A400000F020FDD8E7072805D132463B4628463E
:103A500000F040FDD0E70828CED132463B4628464C
:103A600000F066FDC8E7F8B50D4604461946104655
:103A700017461E4600F090FD2946034601222046C7
:103A8000FFF77EFA054604B104443A463346204621
:103A9000FFF7A5FF2844F8BDF8B5194604461046BF
:103AA00017461E4600F078FD0022034602212046FC
:103AB000FFF766FA054604B104443A463346204609
:103AC000FFF78DFF2844F8BDD3B51C46002600271C
:103AD0006B46CDE90067FFF7BDFE002802DD0CB1A3
:103AE000009B236002B0D0BD13460A460421FFF7B5
:103AF000EBBF2DE9FF41002316460022CDE900234C
:103B0000002402AACDE9024407468846FFF7D4FA0A
:103B1000051E04DC4FF0FF3004B0BDE8F0819DF8D5
:103B20000930DB07F6D59DF80830092B14D1039A2C
:103B30006B46A8EB05017819FFF78CFE0028E9DD3C
:103B4000009B4FF0FF329A42019A74EB0202E1D3DC
:103B500006B133602844DFE72046DDE72DE9F7436F
:103B6000914600246A46CDE90044074688461E4631
:103B7000FFF7A2FA051E04DC4FF0FF3003B0BDE8EA
:103B8000F0839DF801309B07F6D59DF800304B453A
:103B90000AD1019A3346A8EB05017819FFF794FF83
:103BA0000028E9DD2844E9E72046E7E70A46002344
:103BB000FFF715BF70B504460E460846002100F019
:103BC000EBFC0022034609212046FFF7D9F9054600
:103BD00004B1044431462046FFF7E8FF284470BD95
:103BE00070B50D46044600211046164600F0D4FC80
:103BF0002946034601222046FFF7C2F9054604B1D3
:103C0000044431462046FFF7D1FF284470BD10B46C
:103C10000C461946B8B1A24215D8013A032A0FD86A
:103C2000DFE802F00205080B10BC00F0E6BC10BC97
:103C300000F0F2BC10BC00F003BD10BC00F017BDDA
:103C400009B100230B60002010BC704713460A46E0
:103C50000421FFF7DCBF042370B500220E4619468D
:103C60000446FFF78DF9054604B104442146304669
:103C700000F02CFD284470BD10B40C46194630B13C
:103C8000032C04D9042A02D110BC00F002BD00208C
:103C900010BC70472DE9F341164600246A46CDE971
:103CA000004407468846FFF707FA051E04DC4FF07C
:103CB000FF3002B0BDE8F0819DF80130DB07F6D59A
:103CC0009DF80030042B0AD1019A3346A8EB050178
:103CD0007819FFF7D1FF0028E9DD2844E9E72046FD
:103CE000E7E7032910B5044610460BD9042A09D189
:103CF0003BB122781A7062785A70A2789A70E27892
:103D0000DA7010BD0020FCE72DE9F743914600244E
:103D10006A46CDE90044074688461E46FFF7CCF9BF
:103D2000051E04DC4FF0FF3003B0BDE8F0839DF8C2
:103D300001309B07F6D59DF800304B450AD1019A1A
:103D40003346A8EB05017819FFF7CBFF0028E9DD22
:103D50002844E9E72046E7E72DE9F3411646002429
:103D60006A46CDE9004407468846FFF7A5F9051ED7
:103D700004DC4FF0FF3002B0BDE8F0819DF8013067
:103D8000DB07F6D59DF800300B2B0AD1019A33469C
:103D9000A8EB05017819FFF7A4FF0028E9DD284406
:103DA000E9E72046E7E739B103780B7043784B70B9
:103DB00083788B70C378CB70042070470B46042B3C
:103DC000114607D022B100220A70CA704A708A7068
:103DD00018467047FFF7E7BF037803F26C730B8058
:103DE00043788B708378CB70C3780B710420704755
:103DF0000B46042B114601D1FFF7EEBF00220A80CB
:103E00004A800A7118467047032910B504461046C7
:103E10000DD9042A0BD14BB1227802F26C721A80B0
:103E200062789A70A278DA70E2781A7110BD002078
:103E3000FCE72DE9F743914600246A46CDE90044AA
:103E4000074688461E46FFF737F9051E04DC4FF08B
:103E5000FF3003B0BDE8F0839DF801309B07F6D535
:103E60009DF800304B450AD1019A3346A8EB050175
:103E70007819FFF7C9FF0028E9DD2844E9E7204663
:103E8000E7E72DE9F341164600246A46CDE90044F0
:103E900007468846FFF710F9051E04DC4FF0FF3097
:103EA00002B0BDE8F0819DF80130DB07F6D59DF842
:103EB00000300A2B0AD1019A3346A8EB0501781984
:103EC000FFF7A2FF0028E9DD2844E9E72046E7E7FD
:103ED00018B12023037041708270032070472DE9D0
:103EE000F14F0746DDE90A8ADDE90C691546A1B9FB
:103EF000424653460846FFF7CFFD814505DA6FF08D
:103F00000109484601B0BDE8F08F424653463046AD
:103F100001B0BDE8F04FFFF7BFBD4B1C20D100241E
:103F2000A346234606E0214600223846A84701342E
:103F300083440023444573EB0A02F4D3CB45DEDC13
:103F40000024A146A34644457BEB0A03D9D232465E
:103F500021463846A84706B1064481440134F2E7B9
:103F600088457AF100030DD34C1E00222146A84754
:103F70004845C4DC3246214638462B4601B0BDE8F0
:103F8000F04F18474FF0FF39BBE72DE9F04FADF583
:103F9000D45D85B0EA4604460F461646002141F638
:103FA0009022504604F03AFB34B96FF002000DF550
:103FB000D45D05B0BDE8F08F002EF6D06A463946D4
:103FC0002046FEF7DFFD431C012B0546EDD99AF88C
:103FD0000230082BE9D10DF1080B594604EB050915
:103FE000304600F0FAFB6A4639464846FEF7CAFDFD
:103FF000431C012B0446D8D99AF802300B2BD4D19C
:10400000594606F11000A14401F0E8FE6A4639461F
:104010004846FEF7B7FD431C012B25440446C4D98E
:104020009AF802300B2BC0D1594606F114002544F2
:104030004C4401F0D3FE00212046FFF713F900287D
:1040400048D0002106F12003317606F11C022046FB
:10405000FFF78DFA431CA8D0B38B082BA5D10544DC
:1040600004446A4639462046FEF78CFD431C012B6A
:104070009BD9E84698F80230022B96D1D8F8083040
:104080003363044405446A4639462046FEF77AFD08
:10409000431C012B89D998F80230012B85D198F85F
:1040A000083086F8343005446A4620443946FEF725
:1040B00069FD431C012B04467FF677AF98F8023068
:1040C000082B7FF472AF02A906F1350000F085FBE2
:1040D00028196CE701212046FFF70FF900283FF46B
:1040E00064AF4FF001094C4486F8189006F11C01AA
:1040F0002046FEF77DFC00EB09034B4505EB090864
:104100007FF653AF0444804449462046FFF728F920
:1041100000283FF44AAF08EB09054C44A1E72DE91C
:10412000F0438BB01646002400220025CDE904227E
:10413000CDE90845CDE906228946ADF80E20804636
:1041400028B94FF0FF3420460BB0BDE8F08306AF2E
:1041500000970DF10E03FFF7E0F9002804460490E4
:10416000EFDD26B1069BF360BDF80E30338107AB5F
:104170000122A9EB040108EB0400FFF7EFFC002883
:104180000490DEDD04440EB1079B336105AD00955C
:1041900004AB0222A9EB040108EB0400FFF78EF840
:1041A000002833D00498059A044408ABA9EB040115
:1041B00008EB0400FFF74EFB00280490C1DD044427
:1041C0001EB1DDE90823C6E90023009504AB0322F4
:1041D000A9EB040108EB0400FFF770F8E0B10498C4
:1041E000059A009704440DF10E03A9EB040108EBB6
:1041F0000400FFF777F90028A3DD0444002EA2D0C5
:10420000BDF80E30B382069BB3619CE7002EDCD074
:104210004FF0FF320023D6E7002E94D04FF6FF7305
:10422000B3824FF0FF33EFE72DE9F04186B015463A
:10423000002288460492ADF80A200592074620B96C
:104240004FF0FF3006B0BDE8F08104AB009303AB44
:10425000FFF734F805AE044638B3039C049A009681
:104260000DF10A03A8EB04013819FFF73BF9002808
:104270000390E5DD044425B1059B6B60BDF80A3071
:104280002B8000960DF10A030122A8EB04013819D6
:10429000FFF743F90028D3DD2044002DD2D0059B41
:1042A000EB60BDF80A302B81CCE74FF6FF732B8013
:1042B0004FF0FF336B60E4E70A4640F2C451FFF76A
:1042C000B3BFF0B50F4689B01646054620B94FF08A
:1042D000FF34204609B0F0BD07AB0093002206ABC7
:1042E000FFF71BF9041EF2DD03AB0122391B28196D
:1042F000FFF734FC0028EADD044436B1BDF818307D
:104300003380079B7360039BB36025443F1B0023EE
:10431000022239462846FFF708F880B104AB022292
:1043200039462846FFF707FB0028D0DDDDE90432D7
:104330000444002ACBD1002ECBD0F360C9E7002E75
:10434000C7D04FF0FF33F8E738B50D46044619469D
:1043500020B1502303704570827003342046FFF76C
:1043600029FCC51C04B10444BDF810102046FFF719
:1043700021FC284438BD2DE9F3411E460023884620
:1043800017460193044630B101AAFFF7B2FB051EA0
:1043900004DC4FF0FF3002B0BDE8F0810FB1019BAB
:1043A0003B8001AAA8EB05016019FFF7A2FB0028DA
:1043B000EFDD0EB1019B33802844ECE710B10B0A0E
:1043C000037041700220704730B129B103781B029D
:1043D0000B80427813430B800220704720B10B0CF6
:1043E00003700B0A437081700320704750B149B1CC
:1043F00003781B040B60427843EA02230B60827847
:1044000013430B600320704730B10B0E03700B0C8D
:1044100043700B0A8370C1700420704770B169B19A
:1044200003781B060B60427843EA02430B608278F4
:1044300043EA02230B60C27813430B6004207047E9
:1044400038B10370130E4370130C8370130AC370DA
:1044500002710520704710B590B189B10278002330
:10446000C1E9003243781B060B60847843EA0443B9
:104470000B60C47843EA04230B60027913430B609A
:10448000052010BD48B1190A4370130E8370130C38
:10449000C370130A0170037142710620704710B592
:1044A000B0B1A9B1027813020022C1E90023427819
:1044B0001A434A6083781B060B60C47843EA0443BE
:1044C0000B60047943EA04230B60427913430B60C9
:1044D000062010BD58B1190C01708370190A130E13
:1044E000C370130C0371130A41704371827107206A
:1044F000704710B5D0B1C9B1027800231204C1E9E8
:104500000032437842EA03234B6082781A434A60C0
:10451000C3781B060B60047943EA04430B604479BB
:1045200043EA04230B60827913430B60072010BD1C
:1045300068B1190E0170190C4170C370190A130E7D
:104540000371130C4371130A81708371C2710820C7
:10455000704710B5F0B1E9B1027800231206C1E945
:104560000032437842EA03424A60837842EA0323F6
:104570004B60C2781A434A6003791B060B6044798A
:1045800043EA04430B60847943EA04230B60C27955
:1045900013430B60082010BDB0F5807F71F100035C
:1045A0001DD3B0F5803F71F100031AD3B0F1807FC5
:1045B00071F1000317D34FF0FF33B1B183424FF0D5
:1045C000FF028A4113D283424FF6FF728A4110D212
:1045D00083426FF07F438B410DD20820704701204A
:1045E0007047022070470320704704207047052061
:1045F0007047062070470720704758B151B190F9B5
:104600000030002BB4BF6FF0FF0200220A60037875
:1046100013430B600120704770B169B190F900300D
:10462000002B064BA8BF00230B60027843EA02234D
:104630000B60427813430B60022070470000FFFFBD
:1046400098B191B190F90030002BB4BF4FF07F4387
:1046500000230B60027843EA02430B60427843EA8E
:1046600002230B60827813430B600320704770B104
:1046700069B103781B060B60427843EA02430B6082
:10468000827843EA02230B60C27813430B60042054
:10469000704770B1C278002362F30703827862F337
:1046A0000F23427862F31743027862F31F6301B16C
:1046B0000B60042070470B46042B114604D00AB14E
:1046C00000220A6018467047FFF7E3BF49B1C0F304
:1046D00007630B70C0F307434B70C0F307238B7065
:1046E000C8700420704710B5E0B1C479002264F3AB
:1046F0000702847964F30F22447964F31742047942
:1047000064F31F62C478002364F30703847864F3BE
:104710000F234478007864F3174360F31F6309B1F3
:10472000C1E90023082010BD0B46082B30B4114608
:1047300007D01AB100240025C2E90045184630BC54
:10474000704730BCFFF7CFBF40B10346002203F8EB
:10475000012B103003F8012B8342FBD1704710B5B9
:1047600090B177294FEAD1040ED803788B429CBFD1
:104770004B1C037020440123A1EBC40103FA01F197
:10478000437812B10B43437010BD23EA0103FAE7EB
:1047900000B10078704728B1007818B10138C0F333
:1047A000C4000130704728B10E2902D8084440786F
:1047B00070470020704730B10E2903D8084442707A
:1047C000012070470020704730B121B1C2EBC10118
:1047D0000170012070470846704780B171B10A46E8
:1047E00012F8013B00F8013B01F1100312F8011B24
:1047F00000F8011B9A42F9D1012070470846704722
:10480000F0B50C4600B300213F2B016004711BD8AA
:104810009AB1451D0E468B4285BF046812F801C04F
:104820006E54071901F1010182BF013487F805C0F8
:1048300004604029EFD10120F0BD431D453003F84D
:10484000012B9842FBD1F6E70020F5E770B505464D
:104850000C4651B1084603F0D3FF034622462846D2
:104860000021BDE87040FFF7CBBF0B46F6E710B55F
:10487000F9B1C8B10A7903799A4213D10A68036879
:104880009A420FD1402A0DD84B1D114405300531F5
:104890008B4201D1012010BD13F8014B10F8012B00
:1048A0009442F5D00020F6E70868B0FA80F040099D
:1048B000F1E70028EFD00068F7E770B504460D4631
:1048C00009B3C8B103790BB1002070BD0668084672
:1048D00003F096FF8642F7D12368402BF4D80534C5
:1048E0002B449D4201D10120EFE715F8011B14F87C
:1048F000012B9142F5D0E7E7084603F081FFB0FABB
:1049000080F04009E1E70028DED00068F7E700B159
:104910000530704718B100683F2828BF3F20704716
:1049200010B5044658B151B10846FFF7F3FF4A1DD0
:10493000034609792046BDE81040FFF761BF00201B
:1049400010BD002814BF3F200020704700B100793F
:10495000704790B1037943B950F8053B3F2B94BFA2
:10496000C21800F13F02904201D10120704710F8B7
:10497000013B203B5E2BF6D90020704738B50D4631
:104980000446002388B1402A14D840F8043B69B19A
:104990009A4288BFE95C03F1010398BF0021402BD4
:1049A00000F8011BF4D12260012038BD402203F041
:1049B00035FEF9E71846F8E700B10430704718B142
:1049C0000068402828BF40207047000010B50A4CFE
:1049D00002460823084682EA000111F0010F4FEA5F
:1049E000500003F1FF3318BF604013F0FF034FEA9C
:1049F0005202F0D110BD00BF2ED831EB2DE9F041AD
:104A000006469DF818E011B90020BDE8F081002BA2
:104A1000FAD0D4184FF0000C01236546184612F85E
:104A2000017B5FB18142EFD00133DBB200F10108BD
:104A30008EEA0707FF2B3754404608D1A942E3D03E
:104A40008EEA030777559C46054601230130A242B2
:104A5000E5D1BCF1FF0F03D1012B01D10138D4E71F
:104A60008D42D1D08EEA03037355CEE7F0B585B001
:104A7000552400940546FFF7C1FF0E46044610B9C1
:104A8000002005B0F0BD2F184FF0FF31BD4217D107
:104A9000CB431A0A8DF80C308DF80D201A0C1B0E22
:104AA0008DF80F3055238DF80E20009303AA0423B0
:104AB000311B2846FFF7A2FF0028E1D02044E0E7A1
:104AC00015F8010BFFF782FF0146DFE7F0B5064658
:104AD0009DF81470002004469C4205D2155DBD422D
:104AE00085EA070C01D10020F0BD0CEB04059D42C6
:104AF000F9D801346546013D15F0FF0509D1BCF137
:104B0000FF0FE9D0A342E7D98142ECD03554013000
:104B1000E2E78142E7D0A342E5D012F804E087EA59
:104B20000E0E06F800E001340130E4E7042B2DE915
:104B3000FF4706460F46154604D80026304604B007
:104B4000BDE8F087A2F10608A3F1050902F1FF3ADA
:104B500098444FF0FF34C24526D14FF055083046F7
:104B6000CDF800804B462A463946FFF7AFFF064690
:104B70000028E2D00421CDF80080052305EB0902CE
:104B800003A8FFF7A3FF8842D7D103AD0027214632
:104B900015F8010BFFF71AFF0137042F0446F6D171
:104BA000054B9842C9D1C9E721461AF8010FFFF712
:104BB0000DFF0446CFE700BF3B3243084840830067
:104BC00083EA4003434083EAC00383EA001383EA95
:104BD000401383EA801383EAC012C2F3002302F079
:104BE000FE0018437047CBB2434003F00F0080EA49
:104BF000112040EA032080EAC30080EA033080EA03
:104C00001310DB0103F4F063584080B2704728B101
:104C1000C36D1BB19B690BB19B691847002070479E
:104C200028B1C36D1BB19B690BB1DB691847704795
:104C30002DE9F0411C461E4B1B6807468846154669
:104C400013B90020BDE8F081DE6D002EF9D01C36CE
:104C50003046FDF73EFD01460028F2D0B4F5BD6FA9
:104C6000EFD898F80130002B14BF052306230375F5
:104C70002A4600F118032819824210D1CC829FB134
:104C80003B788BB101238B707B78CB7000230B7347
:104C90003046FDF732FD0028D3D02046D2E712F887
:104CA000015B03F8015BE7E74FF601734B80EDE72B
:104CB000B03F00202DE9FF41054620B900242046E1
:104CC00004B0BDE8F081C76D002FF7D007F11C08D4
:104CD0004046FDF7C3FC06460028EFD14046FDF7ED
:104CE000C7FCC378027DC18A02911830019095F803
:104CF00030100091298F686B00F00EFAFB680133C9
:104D00000446FB6031464046FDF7C4FCD7E72DE979
:104D1000F047044694B008B900249FE0C76D002F07
:104D2000FAD007F11C084046FDF798FC824600289F
:104D3000F2D14046FDF79CFC6569218994F8283042
:104D40008DF81B3001238DF81A3004ABB0F81690A3
:104D5000009306460DF11A03524689B2284601F027
:104D600048FC9DF81230002BD6D182B215FA80F0A3
:104D7000AB5C03F0F0038DF82C30002BCCD18378A2
:104D80008DF82D30AB5C19074CBF4379C3788DF893
:104D90002E30B11C0DF13A00FDF79EFD06F118050D
:104DA0000CAB00930DF13A0200234946284601F06E
:104DB00020FC9DF83230002BAED183B2EA5C02F0C9
:104DC000F00150298DF84C104CD017D8202949D02B
:104DD0003029A1D12B44120759788DF84D1045D5B3
:104DE0001B799DF82D208DF84E309DF84D309A425C
:104DF00092D19DF82E209DF84E3009E002F0E0029D
:104E0000602A89D12B449DF82D205B788DF84D3098
:104E10009A4281D19DF810209DF830309A427FF45B
:104E20007BAF0DF13A010DF11A00FDF775FD002879
:104E30003FF472AFF38A327DCDE9015394F83030FC
:104E40000093218F606B002300F066F9FB6801334B
:104E50000446FB6000214046FDF71CFC204614B0D0
:104E6000BDE8F0872B445A788DF84D209B78B8E741
:104E7000034610B50846114643B1DC6D34B1A36951
:104E800023B15B68984723680133236010BD034654
:104E900030B1C06D20B1012280F8352618897047E5
:104EA000704700002DE9F347474D00238DF8073088
:104EB0002B6806460F4690461BB9002002B0BDE89D
:104EC000F087DC6D002CF8D0D4F81890B9F1000F01
:104ED000F3D05B6903B9FEE7D9F80C309847002896
:104EE000EBD1D5F800A09AF8023013F00C0F19D1CD
:104EF000D9F808300DF1070098479AF8023060F3AE
:104F0000410328688AF8023083789A0744BF9DF8E5
:104F10000730C37000F09CF9D9F80830002098479A
:104F20000028DED12868837813F00C0F2ED1286872
:104F300083781B0732D48378590742BFA3680133B3
:104F4000A360037823B983789A062BD500F0FEFA84
:104F500094F83536002BB0D022690132226100234B
:104F60002A6884F8353610894045A6D8002FA4D089
:104F700099B2814222D3002E9FD00023B372338195
:104F80000123337092F82830737097E7036A9847CB
:104F90002B6893F85B308342C9D98EE7636801338D
:104FA0006360C8E790F93020002A01DA5B06CFD5AC
:104FB000286800F02DFC0028FAD1C9E75169C95CC6
:104FC000F9540133D4E700BFB03F0020024B1B6807
:104FD0000BB183F830007047B03F0020024B1868D7
:104FE00008B190F830007047B03F002020B1034B6B
:104FF0001B680BB183F83100704700BFB03F002041
:10500000024B186808B190F831007047B03F00209B
:10501000030607D4044B1B6893F83020824298BFE4
:1050200083F83200704700BFB03F0020024B186881
:1050300008B190F832007047B03F002001230370A0
:10504000064B1B6813B193F8303043700023038183
:1050500043818381C3810382704700BFB03F00203A
:1050600050B14FF6017303804FF6FF7303810023A5
:1050700043818381C38103827047000038B5114D9D
:105080002B680446EBB1DB6DDBB19B69CBB15B698F
:105090009847B0B12A6892F85530072B98BF4EF662
:1050A000602349F6404098BFB3FBF4F3B0FBF4F043
:1050B00098BF013300F1010098BF82F8553082F8A3
:1050C0005B0038BDB03F0020012070477F20704753
:1050D00038B50E4D2860B8B10D4BC46D03620D4B51
:1050E00043628CB194F8343673B901234FF4C06233
:1050F00004F1340104F11C00FDF71CFB286800F0EA
:1051000007FE012384F83436012038BDB03F00206B
:105110000F4C0008214C00082DE9F047DDF82480F1
:105120009DF820A0BDF828600F4614469946054614
:1051300008B307291FD95523FF21037082704170DE
:105140001046FFF73BFD85F8039001464846FFF700
:1051500035FD85F804A001465046FFF72FFD0146B6
:10516000300A6871FFF72AFD0146F0B2A871FFF717
:1051700025FDC043E871B6F5FB7F06D2A4F12003FC
:105180005F2B06D926BB082007E0052C07D0062C8C
:1051900005D0203C5F2C13D90020BDE8F087012406
:1051A0003346424639462846FFF760FC80B24CB190
:1051B000A0F5FD73B3F57A7FEED8063080B2ECE748
:1051C0000024EDE7431F9BB240F2F6729342F3E7EF
:1051D0004FF008094FF6FF711FFA89F4B8F1000F7C
:1051E00013D0A74211D935B198F8000005F809008D
:1051F000FFF7F9FC0146013E0134B6B208F101089F
:10520000A4B209F10109002EE6D1631C9BB2BB4296
:10521000C2D225B1C94389B22955090AE954A01C53
:10522000CCE71FB50446BDF81C0002900698CDE9F6
:1052300000301346606B0A46218FFFF76DFF616BEC
:105240000246204604B0BDE81040FFF711BE000042
:1052500070B505780446284600F09AFD236A20467A
:1052600098472378042B30D8DFE813F00500280096
:105270005100F200F200A378DA0714D56FF30003AF
:10528000A3702046636A9847E37AFF2B01D001336D
:10529000E372F5B12378E3B9904B1B68BDE8704029
:1052A000D86802F075BB9B0711D5E378552B01D167
:1052B00001232370A3786FF34103E1E7236A2046BB
:1052C000984794F85530984204D900232370002D54
:1052D000E2D170BDA37813F001020BD06FF300038D
:1052E000A3702046636A9847E37AFF2BEDD0013321
:1052F000E372EAE79E07CCD5E378FF2B03D1A373D3
:1053000022610223D5E7552B18BF2270D2E7236A0A
:105310002046984794F855309842A37808D943F02E
:105320000403A370002323702046236A9847B0E744
:1053300013F001010FD06FF30003A3702046636ADE
:105340009847E37AFF2B01D00133E372A37843F04F
:105350000403A370B9E798079BD52269E078A2B946
:10536000A17BFFF72BFCE3782373A0730123236158
:10537000636A20469847E37AFF2B1CBF0133E37230
:10538000A3786FF34103A37083E7012A07D1A17BC0
:10539000FFF714FCE378A372A0730223E7E7022A65
:1053A00008D1A17BFFF70AFCE37884F82830A073CA
:1053B0000323DCE7032A08D1A17BFFF7FFFBE37897
:1053C000A0731B0223810423D1E7042A09D1A17B06
:1053D000FFF7F4FB2289E378A073134423810523AC
:1053E000C5E7052A2DD1A17BFFF7E8FBE378A07381
:1053F0005528E37306D0A37843F00403A370002379
:105400002370B5E7268946B9207B00F0D5FCA37848
:10541000267043F00803A370AAE7A37A94F830201B
:105420009A4201D0FF2B0AD1238BB34207D3032327
:105430002370002323614FF6FF73A38098E70423B2
:10544000F6E723F0050343F00403A37021708FE710
:10545000236A2046984794F855309842A37806D995
:1054600043F00403A3702046236A98472DE713F006
:10547000010606D06FF30003A3702046636A9847C5
:1054800064E79A077FF505AF22692189E0788A42AF
:1054900015D2A188FFF7A7FB2369228BA080934236
:1054A00002D26269E178D154236901332361A37880
:1054B0006FF34103A3702046636A9847E9E60FD172
:1054C000A188FFF790FB218B2369E278A0808B42B3
:1054D00038BF6169A27138BFCA54E5E7D80000201F
:1054E00001318A422CD1238B9A423CBF6369985484
:1054F000A188E078FFF777FBE378A080E371207B59
:1055000000F05AFC2369218B01338B420FD2227B9E
:10551000203A5F2A0BD86269D018FFF707FB58B111
:10552000A37843F00803A37000232370BFE7A28889
:105530004FF2B8039A42F3D0A37843F00403F2E7A2
:1055400043F00403A3702670B1E700BF73B50123D5
:105550004370837813F00402044603D06FF3820390
:10556000A3701DE013F008061CD062F3C303837020
:10557000037B032B09D0052B12D1837AFF2B0FD08D
:1055800002B0BDE87040FFF782BC03890193436914
:10559000009390F8303090F828200421FFF741FE66
:1055A00002B070BD3146FFF7B2FB054640B102467E
:1055B000616B2046FFF75CFCA37866F3C303CFE77B
:1055C000236A2046984794F856309842E8D9A37841
:1055D00065F3C303C4E7F8B50446E8B100F13E053E
:1055E00000F14E06FF2703F077F890FBF7F3034432
:1055F00005F8013BB542F6D194F8443003F00F03AF
:1056000043F0400384F8443094F8463003F03F03FD
:1056100063F07F0384F84630F8BD37B504460028B0
:1056200038D08378590635D590F83A20042A31D8F5
:10563000DFE802F003234B95B5000025402380F8F6
:105640003B3080F83C5003F047F82B1A03F03F033F
:1056500000F03F0058BF58420130C0B284F83D000E
:105660000A238030584300F5FA7020652046FFF782
:10567000B2FF84F85450012362E01A0704D50023D6
:1056800084F83C3002235BE05D0705D5A3786FF317
:105690008203A37003B030BD036D002BFAD0036A00
:1056A0009847236D9842F5D97F2384F8543010220F
:1056B00094F83B30019204F13E0200921A46032115
:1056C0002046FFF7AEFD04233AE018073BD5A37848
:1056D000207B94F828206FF3C3030128A370A37ADA
:1056E00007D194F85410994203D2190658BF84F890
:1056F000543094F83B108A420AD10132D3B21206D8
:1057000048BF402384F83B30002384F83C30C1E795
:105710000128BFD18B42BDD194F83C1094F83D00D4
:1057200001310830C9B2C0B2814284F83C10B1D115
:105730000021CDE9001120460221FFF772FD03236D
:1057400084F83A30A6E75D07A0D4236D002BA1D0E2
:10575000236A20469847236D98429BD98BE7180708
:10576000F1D5A37894F8282094F83B106FF3C30385
:105770008A42A37007D101321106D3B248BF402339
:1057800084F83B307BE7237B002B83D1A37A8B42C9
:1057900080D11021019104F13E0100918FE71A0799
:1057A0002ED5837890F83B206FF3C3038370037B7F
:1057B000042B16D1837A93427FF45DAF03890F2BBC
:1057C0007FF659AF00F13E011022406902F058FE09
:1057D00000287FF450AF94F83B3084F83030052334
:1057E000AEE790F8283093427FF454AF0133DAB239
:1057F0001B064ABF402380F83B2080F83B3041E73E
:10580000036A9847B4F858309842FFF443AFE2E790
:105810002DE9FF4790F8321090F81B8090F8303057
:105820004678013108F1010803F10109B8FBF1F2F2
:1058300001FB1288B9FBF1F201FB1299827E02F1A1
:10584000010A0446BAFBF1F001FB10AA5FFA88F8DE
:105850005FFA89F95FFA8AFA082E00F25682DFE8C9
:1058600016F009004A00CC00EE00170174019F01F8
:10587000CF012B02A27812F0400132D02046FFF770
:10588000CCFE94F83030FF2B01D100251CE094F8B9
:105890005410A3765A1C0131D2B2B2FBF1F001FBD5
:1058A0001022A0783221D2B2E16240F01000002133
:1058B000CDE90011E172A070E27601212046FFF7E8
:1058C000B0FC0723637001256378B34205D0236AD7
:1058D00020469847607800F065FA284604B0BDE895
:1058E000F087A376E37661F304123223E362A270B9
:1058F00001256570E8E7A37813F0040703D06FF380
:105900008203A370C1E713F00805226A204667D01E
:105910009047207B00F050FA94F8282094F830301B
:105920009A420CD1A3785B06A37848BF84F83A70FA
:105930006FF3C30348BF6770A370002524E0A17A0A
:105940008B4201D0FF29F8D1257B0020062DF4D809
:1059500001A757F825F000BF7559000899590008AC
:105960003B590008D55900083B590008C5590008A3
:10597000AB590008FF29E0D002236370A37860735D
:1059800023F01803A37001256378082B9CD0A3781B
:105990006FF3C303A37097E78B42CED1CDE900002C
:1059A00002212046FFF73DFCC7E7FF2903D0204630
:1059B000FFF76DFAC1E72189606900F0E3FE002876
:1059C000BBD1F4E7FF29B8D02046FFF760FA0823DF
:1059D0006370B2E721890191616900910421E0E7D8
:1059E0009047B0F5FA7FFFF450AF06236370A378B9
:1059F000E57223F00C03A37065E700212046FFF752
:105A000059F9024620B994F831306373042359E7F9
:105A1000616B20468D78CF78FFF72AFA637B032DE0
:105A200003F10103637308D0052D01D1FF2F01D1CC
:105A3000042300E00323637027E7657025E7236AEA
:105A400020469847B4F858309842DCD2A3785D07D6
:105A500003D56FF38203A370D8E718077FF515AF5E
:105A6000A27A94F830309A4210D1237B062B09D0C9
:105A7000072B01D0042B09D104236370A3786FF3A3
:105A8000C303B8E72046FFF702FAF5E70123F4E77E
:105A9000607B94F83110884201D2022312E7A57886
:105AA00015F010070DD193420BD1CDE9007784F8A2
:105AB0001B904A4601212046FFF7B3FBE76107230D
:105AC000B9E7E16A302912D80131002527B14A45EA
:105AD00002D06573E162E0E7E162CDE900550021A3
